:020000040800F2
:10000000005000200D010008110100081501000832
:100010002D0100083101000849010008000000001E
:100020000000000000000000000000006101000866
:10003000650100080000000069010008690C000863
:100040008101000881010008810100088101000888
:100050008101000881010008810100088101000878
:100060008101000881010008810100088101000868
:100070008101000881010008810100088101000858
:100080008101000881010008810100088101000848
:100090008101000881010008810100088101000838
:1000A0008101000881010008810100088101000828
:1000B0008101000881010008810100088101000818
:1000C0008101000881010008810100088101000808
:1000D0008101000881010008750D000881010008F8
:1000E000E10B000881010008810100080000000008
:1000F0000000000000000000000000000000000000
:1001000000000000000000005FF808F118480047F8
:10011000FEE700BF1EF0040F0CBFEFF30880EFF303
:1001200009807146134A1047FEE700BFFEE700BF93
:100130001EF0040F0CBFEFF30880EFF30980714647
:100140000D4A1047FEE700BF1EF0040F0CBFEFF38F
:100150000880EFF309807146084A1047FEE700BFA8
:10016000FEE700BFFEE700BFFEE700BF70470000EC
:100170008501000829010008450100085D0100080B
:10018000FEE700BF00B583B000F002FC154B164A35
:1001900093420CD2181D0332121A22F003021349A3
:1001A000024451F8040B43F8040B9342F9D1104B6D
:1001B000104A93420AD2191D0332521A22F0030246
:1001C0000A44002143F8041B9342FAD100F0ECFBEF
:1001D00001A9684600F01AFCDDE9000100F078FD95
:1001E00000F0D2FB00000020F00100208C1E00086F
:0801F000F0010020C014002002
:10040000A0000000008001005CCF00002B0700006E
:10041000666603000000000000000000000000000D
:1004200000000000000000000000000000000000CC
:1004300000000000000000000000000000000000BC
:1004400000000000000000000000000000000000AC
:10045000000000000000000000000000000000009C
:100800008C1E000800000020F00100208C1E000853
:100810000000000000000000F0010020C0140020D3
:080820000000000000000000D0
:1008280010B400204FF41F043A4B3B4A196883B0B8
:1008380041F00101196059680A405A601A6822F0AB
:10084800847222F480321A601A6822F480221A60B4
:100858005A6822F4FE025A609C60009001901A685F
:1008680042F480321A6003E0009BB3F5A06F0AD00F
:10087800284B1B6803F400330193009B013300935A
:10088800019B002BF0D0234B1B6813F4003318BFD7
:1008980001230193019B012B06D04FF000621F4BEF
:1008A8009A6003B010BC70471D4A1A4B116841F09A
:1008B80010011160116821F003011160116841F005
:1008C800020111605A685A605A685A605A6842F4BC
:1008D80080625A605A6822F47C125A605A6842F45C
:1008E800E8125A601A6842F080721A60094B1A6856
:1008F8009201FBD55A6822F003025A605A6842F006
:1009080002025A60034B5B6803F00C03082BF9D111
:10091800C3E700BF001002400000FFF800ED00E050
:1009280000200240114A536803F00C03082B0ED133
:1009380053685168C3F38343C90303F1020311D514
:10094800526892030ED40A4A02FB03F300E0084BF4
:10095800064A084852680849C2F30312825CD34029
:100968000B607047054A02FB03F3F1E700100240F1
:1009780000127A00000000201000002000093D004D
:1009880008B500F00FF800BF08B5FFF749FF024AA5
:10099800024B9A6008BD00BF0000000800ED00E0AF
:1009A800FFF7C0BFBFF34F8F0449054BCA6802F475
:1009B800E0621343CB60BFF34F8FFEE700ED00E02A
:1009C8000400FA050C4A08B513684BB1033020F04F
:1009D80003000A491844884206D81060184608BD22
:1009E80007490B461160F1E700F078FC0C224FF044
:1009F800FF330260184608BDF0010020004C0020BB
:100A0800C01400200122024B02600B60704700BF37
:100A180014000020002230B5624C634D94F9003078
:100A280083B0EA5495F90030433B102B15D8DFE822
:100A380003F01814142634141468147683141496C6
:100A480014A4090095F901305848732B00F0A380CD
:100A580000F038FCC0B200F039FA0023237003B06C
:100A680030BD534800F02EFC0146524800F072FB9E
:100A78000022514B1A800023237003B030BD4E4B27
:100A88004E49B3F90020484800F06EFC464800F093
:100A9800CBF90023237003B030BD0023ADF8043038
:100AA800BDF804301BB2B3F57A7FD6DA444DBDF8F1
:100AB800043044491BB255F823203B4800F054FC4D
:100AC800394800F0B1F9002341F2873205E041F2DC
:100AD8008732BDF8063001331BB2ADF80630BDF8D9
:100AE80006301BB29342F2DDBDF8043001331BB26D
:100AF800ADF80430BDF804301BB2B3F57A7FD6DB0D
:100B0800ABE700222C4B2A481A8000F0DBFB014699
:100B1800284800F003FB0023237003B030BD254BA9
:100B28002849DA6A204800F01FFC1F4800F07CF9C9
:100B38000023237003B030BD1D4800F0C3FB224AD8
:100B4800C1B2131D002908BF1346204DA2F12C0085
:100B58002B6000F0FDFA0023237003B030BD13486A
:100B680000F0B0FB6A780146303AD2B2114800F082
:100B7800D7FA0023237003B030BD72B6002314499E
:100B8800144A0C480B60136000F0B2FA62B60023F6
:100B9800237003B030BD00F095FB0649C0B200F0E9
:100BA800B5F95AE791120020F8010020FA01002057
:100BB800F9010020E01100201C000020281D000879
:100BC80038020020201D00080C120020D811002037
:100BD800941200209812002008B51B4B5A69110482
:100BE8001BD4194B5A69920400D408BD5A69174995
:100BF80042F400525A618B68154A03F48053002B63
:100C080014BF4FF0FF330123116812480B441946F3
:100C18001360BDE8084000F081BA5A690B4942F4F4
:100C280000425A618B680C4A03F48043002B14BFBE
:100C38004FF0FF330123116808480B44194613602D
:100C480000F06CFACDE700BF00040140000C014041
:100C5800981200203812002094120020E011002081
:100C6800134A10B5B2F90030B3F57A7F07DA1148A4
:100C7800114900685C1C0068148041F823000F4C7F
:100C88000F482378013303F00303A3F10301B1FAFA
:100C980081F14909237000F05FFA21780948A1F130
:100CA8000301B1FA81F1BDE81040490900F054BAD6
:100CB8001C000020D81100203802002090120020CB
:100CC800E01100203812002000B51B4B1B491C4ABC
:100CD80083B059605A6000F075F900F0CDF8194BEF
:100CE800194A1A49CDE900321948043BFF2200F09D
:100CF800C9FA184B184A1949CDE900321848043B7B
:100D0800FF2200F0BFFA62B6164C174D00F080F8CB
:100D18000028FBD000F068F80D2809D00A2807D071
:100D280094F90020531C03F03F03A8542370EDE707
:100D3800FFF770FEEAE700BF002002402301674585
:100D4800AB89EFCD400800402400004000040008B3
:100D5800E011002038080040240400402004000866
:100D68003812002091120020F8010020174A10B410
:100D78001388590611D51388154923F040031B041D
:100D880014481B0C138000680B6898421AD0124C48
:100D9800581CE45CC0B2948008600C4A13889B0617
:100DA8000ED513880D4923F020031B041B0C138058
:100DB80094880A680B680A480133DBB284540B60D4
:100DC80010BC70470122074B1A60E6E70044004058
:100DD800A4140020AC140020A4130020A0130020A9
:100DE8009C120020A8140020064907480A680368D6
:100DF8009A42FBD00A680B6804480133DBB280567C
:100E08000B6070479C130020A01300209C12002048
:100E1800034A044B10681B68C01A18BF01207047AA
:100E28009C130020A0130020F0B40027DFF844C072
:100E38000138DCF8006010F9013F0B4A0B4DDCB2B9
:100E48005BB1116819B100231360AC80F3E7012787
:100E58000749F2198B55D6B2EDE70FB9F0BC7047C8
:100E6800CCF80060FAE700BFA81400200044004056
:100E7800A4130020AC14002070B412264FF49C7503
:100E880042F26C0440200D4A936943F005039361D4
:100E9800D1690B4B41F40031D1611A68094922F438
:100EA8007F421A601A6842F40A421A601E61064BB1
:100EB8000D818C81586070BC704700BF00100240E3
:100EC800000801400044004000E100E030B50D4B4F
:100ED80040011A18D2E904451B58D2E90210526899
:100EE800C7B0CDE9011000924FF48071064ACDE9F0
:100EF800034506A800F004FA06A8FFF795FF47B0D7
:100F080030BD00BF000400082C1D000870B5054660
:100F18000E462A4CC8B021464FF48072684600F04D
:100F2800E3F931460DEB4510202200F0DDF9244BA2
:100F3800DA68D207FBD4DA68960644BF2022DA6062
:100F48001F4B1A6942F002021A615C611A6942F089
:100F580040021A611A4BDA689506FBD52022DA603E
:100F68001A6922F002021A61154BDA68D007FBD41D
:100F7800DA68910648BF20224FF0000148BFDA60C6
:100F88000F4A136943F0010313610DEB01035A780B
:100F98001DF8013003EB02239BB26352084BDA6859
:100FA8009206FBD520220231B1F5907FDA60ECD1B0
:100FB8001A6922F001021A6148B070BD00040008E5
:100FC800002002402DE9F043C3254FF0804240F253
:100FD80001144FF6FF763D4B3D48996941F21009DF
:100FE80041F00D019961D9694FF4807841F007010A
:100FF800D9613849A3F582330160056101F13C41AB
:10100800354822311860596011894FF4204041F069
:1010180003011181118B4FF00E0E21431183968528
:10102800158846F6680145F001051580B2F80854A0
:101038004FF0FF0C45F00305A2F80854B2F8185415
:1010480081272C43A2F81844A2F82C64B2F8004473
:10105800F02644F00104A2F800445A680025072449
:1010680092B25A605A68A3F5406342F0084242F4CB
:101078000802C3F8042CD3F80C2C22F47042C3F8ED
:101088000C2CC3F81490C3F80004C3F80804134BDD
:10109800C3F80480124B1A8B0A431A839A8B1143A4
:1010A8009983A3F828E0A3F82CC01A8C0D4942F4C0
:1010B800885242F011021A841F800B4A0B4B4A6077
:1010C80083F823608D600C60BDE8F0830010024057
:1010D8000008014088444488444444AA00E100E0F0
:1010E8000008004010E000E03F19010000ED00E0BA
:1010F800002330B4D0E912154FF4FA64026D0B6086
:1011080005492B600C60C3634363C0E90A3330BCF4
:101118001360036303647047B01400208162704752
:10112800052A05D8DFE802F00507090B120341611B
:101138007047016070474160704781607047436C39
:10114800C1601B0493FBF1F1816370470161704733
:1011580041627047016270472DE9F041474A82B009
:101168001368002B08DD0021046D013B216013602A
:10117800816202B0BDE8F081036A019372B6026D24
:10118800C36AB2F900201344C36262B60022036D39
:101198001A6021B1C36A026C03649B1A0363436A31
:1011A800032BE6D8DFE803F0232E020BD0F830C07B
:1011B8004269019B02FB0CFC03EB2C430193436C3B
:1011C800019A93420DDA002B23EAE371A8BF0023AA
:1011D800826CB8BF5B421160C26C136002B0BDE89C
:1011E800F081019A5B429342D8BF019BEBE7036809
:1011F800D0E90A21521A9A4203DC5B429342B8BFF3
:1012080013460193D0F830C04368019A03FB0CF3EE
:10121800446BA2EB234E816B04EB0E03C2688B4236
:1012280084FB024505DCC1F1000898454146B8BF7A
:10123800194640F2DC56002741638168C1FB0E4520
:10124800C16BC0F83CE0AEEB010E0169C1FB0E4575
:10125800220C42EA05422B14964277EB030108DB85
:101268004FF0FF35064CA24273EB050104DB0192F7
:101278009EE740F2DC52FAE72246F8E7B014002075
:1012880024FAFFFF2DE9F041154688465821044607
:101298001E46069F00F01AF80022079B053D2365AD
:1012A800C4E90822C4E911562022E76441462046D1
:1012B80000F01AF8636CE2681B0493FBF2F3A36373
:1012C800BDE8F0810A22002100F0F2B800230144B1
:1012D800884200D1704700F8013BF9E7014B1868D4
:1012E800704700BF2000002010B5431E0A449142F9
:1012F80000D110BD11F8014B03F8014FF7E70000CA
:101308000CB430B5174B0C1E9DB01D6808DA8B2342
:101318004FF0FF302B601DB0BDE8304002B0704781
:101328004FF40273ADF814300CBF234604F1FF33B9
:10133800049307934FF6FF7302900690ADF81630AA
:10134800209A21AB02A92846019300F037F9431CE3
:10135800BCBF8B232B60002CDDD00022029B1A70AF
:10136800D9E700BF200000200EB44FF4027100B589
:101378009CB0ADF814106FF00041049107914FF63E
:10138800FF711DAB02900690084853F8042BADF886
:101398001610006802A9019300F010F90022029BC0
:1013A8001A701CB05DF804EB03B0704720000020F1
:1013B8002DE9F84F8046894692461F468B465D4682
:1013C8000A9815F8014B00F089F82044467816F081
:1013D80008060BD12D2C0BD101262C780BF1020518
:1013E80067B1102F14D1302C0AD011E0AB46E6E7D4
:1013F8002B2C04BF2C780BF10205F1E7302C27D1F8
:101408002B7803F0DF03582B4BD110276C7802356B
:10141800002E0CBF6FF000414FF000410022B1FBDD
:10142800F7FE104607FB1E1CA4F13003092B11D848
:101438001C46A7421DDD531C07D0864516D301D193
:10144800A44513DB012200FB074015F8014BEBE72D
:101458000A27DDE7A4F14103192B01D8373CE8E757
:10146800A4F16103192B04D8573CE2E74FF0FF328F
:10147800EBE7531C08D122230846C8F80030BAF11C
:10148800000F07D1BDE8F88F06B14042BAF1000F4E
:101498000CD022B1013DCAF80050BDE8F88F4D4686
:1014A800F9E73024002FB3D10827B1E7BDE8F88F5A
:1014B800084B37B51C68084D236A002B08BF2B461C
:1014C800009313460A4601462046FFF771FF03B012
:1014D80030BD00BF2000002084000020D0F8EC00C0
:1014E800704782B001B901A942B14BB113780B60C2
:1014F8001278101C18BF012002B070471046FBE795
:101508006FF00100F8E72DE9F0478E6882469E42A9
:101518000C469146984635D88A8912F4906F31D096
:101528000223256809696F1A656905EB450595FB6E
:10153800F3F508F101033B449D4238BF1D465305AE
:1015480031D5294600F048FB064650B90C23CAF8A5
:101558000030A3894FF0FF3043F04003A381BDE87A
:10156800F0873A462169FFF7BFFEA38923F4906309
:1015780043F08003A38126613E44266046466561A8
:10158800ED1BA560464528BF4646494632462068B9
:1015980000F0BBFAA36800209B1BA36023681E44CD
:1015A8002660BDE8F0872A4600F074FB064600284E
:1015B800E1D12169504600F0C3FAC7E72DE9F04FA1
:1015C8009DB003938B8980461C060D4616460FD5A1
:1015D8000B696BB9402100F0FFFA2860286128B92F
:1015E8000C23C8F800304FF0FF30C4E040236B6193
:1015F8000023099320238DF8293030234FF0010B65
:101608008DF82A3037463C4614F8013B002B3CD174
:10161800B7EB060A0BD05346324629464046FFF739
:1016280072FF013000F0A280099B534409933B7874
:10163800002B00F09B8000234FF0FF3204930793A8
:10164800059206938DF853301A9305222178504855
:1016580000F04DFA671C049BD8B9D90644BF202274
:101668008DF853201A0744BF2B228DF85320227877
:101678002A2A16D000210A20079A27463B780134E7
:10168800303B092B50D9C9B111E0252BC0D02746D2
:10169800B9E73F4A3C46801A0BFA00F01843049019
:1016A800D3E7039A111D12680391002A01DB079200
:1016B80004E0524243F00203079204933B782E2B36
:1016C8000DD17B78791C2A2B32D1039B02371A1D46
:1016D8001B680392002BB8BF4FF0FF3305932D4CC6
:1016E80003223978204600F002FA38B14023001B63
:1016F80003FA00F0049B0137034304933978062268
:1017080025487E1C8DF8281000F0F1F9002835D006
:10171800224BFBB9039B073323F0070308330393DA
:10172800099B4B4409936DE700FB02320121A4E7B2
:1017380000230A24184605930F463A780131303AB7
:10174800092A03D9002BCAD00590C8E704FB00205A
:101758000123F1E703AB00932A46114B04A9404645
:10176800AFF30080B0F1FF3F8146D9D1AB895B066A
:101778003FF539AF09981DB0BDE8F08F03AB009372
:101788002A46074B04A9404600F084F8EAE700BF60
:10179800561D00085C1D0008601D000800000000C0
:1017A8000F1500082DE9F04791461F468A680B6916
:1017B80006469342B8BF1346C9F8003091F8432053
:1017C8000C46DDF8208012B10133C9F800302368D7
:1017D800990642BFD9F800300233C9F800302568AD
:1017E80015F0060507D104F1190AE368D9F80020B5
:1017F8009B1A9D422ADB94F843302268003318BFB5
:10180800012392062FD404F1430239463046C047DB
:10181800013022D02368E56803F00603042B18BFC3
:101828000025D9F800204FF0000908BFAD1AA368B9
:10183800226908BF25EAE5759342C4BF9B1AED18D3
:101848001A344D451BD10020BDE8F08701235246CC
:1018580039463046C047013003D14FF0FF30BDE86C
:10186800F0870135C1E73020E11881F843005A1CA0
:1018780094F845102244023382F84310C3E7012349
:10188800224639463046C0470130E6D009F1010901
:10189800D7E700002DE9F04317460A7E85B06E2A87
:1018A800984606460C460C9B01F1430E00F0BC809E
:1018B8001AD8632A2ED00AD8002A00F0C880582ADD
:1018C80000F08A8004F1420584F842202AE0642A64
:1018D80001D0692AF6D121681A6811F0800F23D047
:1018E800111D1960136827E0732A00F0B48008D826
:1018F8006F2A2AD0702AE5D10A6842F020020A60CD
:1019080003E0752A21D0782ADCD178226F4984F83F
:10191800452064E01A6801F14205111D1960136839
:1019280084F842300123A3E011F0400F02F10401D2
:101938001960D7D0B2F90030002B03DA2D225B42B0
:1019480084F8432062490A2217E02068196810F0D9
:10195800800F03D0081D18600B6806E010F0400FD8
:1019680001F104001860F7D00B886F2A14BF0A220F
:1019780008225749002084F843006568002DA560B7
:10198800C0F29C80206820F004002060002B3FD12A
:10199800002D40F095807546082A0BD12368DA0798
:1019A80008D5236962689A42DEBF302305F8013CF6
:1019B80005F1FF35AEEB05032361CDF800803B460A
:1019C80003AA21463046FFF7EDFE013055D14FF00E
:1019D800FF3005B0BDE8F08381F845203C49226816
:1019E800186812F0800F00F104051D6001D003682B
:1019F80002E05506FBD50388D00744BF42F0200219
:101A080022601BB9226822F0200222601022B1E76E
:101A18007546B3FBF2F002FB1033CB5C05F8013DD1
:101A280003460028F5D1B7E708681A6810F0800F58
:101A3800496904D0101D18601368196007E010F098
:101A4800400F02F1040018601368F6D019800023D3
:101A580075462361B1E71A68111D196015680021E0
:101A68006268284600F043F808B1401B606063686C
:101A78002361002384F843309FE723692A463946C7
:101A88003046C0470130A2D023689B0707D5002500
:101A980004F11909E368039A9B1A9D4205DBE06883
:101AA800039B9842B8BF184693E701234A46394634
:101AB8003046C04701308AD00135EBE7002BA7D16B
:101AC8000B7804F1420584F8423065E7781D000878
:101AD800671D000849B1FF2A8BBF8A230A7003607B
:101AE800012088BF4FF0FF3070470846704710B597
:101AF800C9B202449042034601D1002010BD1C78AF
:101B080001308C42F6D1184610BD884210B501EB61
:101B1800020303D8421E99420CD110BD9842F9D253
:101B28008118D21AD34200D110BD13F8014D01F823
:101B3800014DF7E711F8014B02F8014FEBE7000000
:101B480038B50546002943D051F8043C0C1F002B3A
:101B5800B8BFE41800F0D4F81E4A1368104633B929
:101B6800636014602846BDE8384000F0CAB8A34254
:101B78000BD921686218934201BF1A685B68521832
:101B8800226063600460EDE713465A680AB1A24216
:101B9800FAD919685818A0420BD12068014458187E
:101BA80082421960DED110685268014419605A6097
:101BB800D8E702D90C232B60D4E7206821188A4281
:101BC80001BF116852680918216062605C60C9E74A
:101BD80038BD00BFB414002070B5CD1C25F0030536
:101BE80008350C2D38BF0C25002D064601DBA9420F
:101BF80003D90C233360002070BD00F081F8234A1C
:101C08001468214691B9224C23681BB9304600F06C
:101C180067F820602946304600F062F8431C26D158
:101C28000C233046336000F06CF8E4E70B685B1B6C
:101C38001AD40B2B0FD90B60CC18CD50304600F0BE
:101C480060F804F10B00231D20F00700C31A1BD015
:101C58005A42E25070BD8C420BBF63684B681360F8
:101C6800636018BF0C46E9E70C464968CAE7C41C1C
:101C780024F00304A04205D0211A304600F030F8C1
:101C88000130CDD02560D9E770BD00BFB414002065
:101C9800B8140020F8B5074614460E4621B9114677
:101CA800BDE8F840FFF798BF22B9FFF749FF25467E
:101CB8002846F8BD00F026F884420FD92146384658
:101CC800FFF78AFF05460028F2D031462246FFF783
:101CD8000BFB31463846FFF733FFE9E73546E7E7C0
:101CE80038B50023054C054608462360FEF76AFE12
:101CF800431C02D1236803B12B6038BDBC140020FB
:101D08007047704751F8040C0028A0F10400BCBFCC
:101D18000B58C01870470000256C640A00000000CA
:101D280025640A00256C642C20256C642C20256C05
:101D3800642C20256C642C20256C642C20256C6474
:101D48000A0000004300504F534958002E00232D2D
:101D5800302B2000686C4C006566674546470030AC
:101D680031323334353637383941424344454600F9
:101D780030313233343536373839616263646566F9
:101D88000000202020202020202020282828282863
:101D9800202020202020202020202020202020203B
:101DA8002020881010101010101010101010101093
:101DB8001010040404040404040404041010101093
:101DC800101010414141414141010101010101014E
:101DD80001010101010101010101010101101010BE
:101DE8001010104242424242420202020202020221
:101DF8000202020202020202020202020210101091
:101E0800102000000000000000000000000000009A
:101E180000000000000000000000000000000000BA
:101E280000000000000000000000000000000000AA
:101E3800000000000000000000000000000000009A
:101E4800000000000000000000000000000000008A
:101E5800000000000000000000000000000000007A
:101E6800000000000000000000000000000000006A
:101E7800000000000000000000000000000000005A
:021E8800000058
:101E8C00000000000000000001020304060708091E
:101E9C0000A24A04F401002000000000E803FFFF48
:101EAC0024000020000000000000000000000000E2
:101EBC000000000000000000000000000000000016
:101ECC000000000000000000000000000000000006
:101EDC0000000000000000000000000000000000F6
:101EEC0000000000000000000000000000000000E6
:101EFC0000000000000000000000000000000000D6
:101F0C000000000043000000000000000000000082
:101F1C0000000000000000000000000000000000B5
:101F2C000000000043000000000000000000000062
:101F3C000000000000000000000000000000000095
:101F4C000000000043000000000000000000000042
:101F5C000000000000000000000000000000000075
:101F6C000000000043000000000000000000000022
:101F7C000000000000000000000000000000000055
:101F8C000000000043000000000000000000000002
:101F9C000000000000000000000000000000000035
:101FAC0000000000430000000000000000000000E2
:101FBC000000000000000000000000000000000015
:101FCC0000000000430000000000000000000000C2
:101FDC0000000000000000000000000000000000F5
:101FEC0000000000DD1A0008EB14000800000000DF
:101FFC00891D0008541D00085B1D00085B1D0008AE
:10200C005B1D00085B1D00085B1D00085B1D0008C4
:10201C005B1D00085B1D00085B1D0008FFFFFFFF38
:10202C00FFFFFFFFFFFFFFFFFFFF00000100415319
:10203C0043494900000000000000000000000000BF
:10204C0000000000000000000000000000004153F0
:10205C00434949000000000000000000000000009F
:10206C000000000000000000000000000000000064
:040000050800018569
:00000001FF
