:020000040800F2
:10000000005000200D010008110100081501000832
:100010002D0100083101000849010008000000001E
:100020000000000000000000000000006101000866
:10003000650100080000000069010008A50A000829
:100040008101000881010008810100088101000888
:100050008101000881010008810100088101000878
:100060008101000881010008810100088101000868
:100070008101000881010008810100088101000858
:100080008101000881010008810100088101000848
:100090008101000881010008810100088101000838
:1000A0008101000881010008810100088101000828
:1000B0008101000881010008810100088101000818
:1000C0008101000881010008810100088101000808
:1000D0008101000881010008590D00088101000814
:1000E0001D0A0008810100088101000800000000CD
:1000F0000000000000000000000000000000000000
:1001000000000000000000005FF808F118480047F8
:10011000FEE700BF1EF0040F0CBFEFF30880EFF303
:1001200009807146134A1047FEE700BFFEE700BF93
:100130001EF0040F0CBFEFF30880EFF30980714647
:100140000D4A1047FEE700BF1EF0040F0CBFEFF38F
:100150000880EFF309807146084A1047FEE700BFA8
:10016000FEE700BFFEE700BFFEE700BF70470000EC
:100170008501000829010008450100085D0100080B
:10018000FEE700BF00B583B000F002FC164A174B33
:100190009A420DD2D043164918440B4620F0030072
:1001A0000430084453F8041B834242F8041BF9D17D
:1001B000104A11498A420BD2D0431346014421F020
:1001C000030104311144002243F8042B8B42FAD17D
:1001D00000F0EAFB01A9684600F018FC9DE8030066
:1001E00000F078FD00F0D0FB000000208800002027
:0C01F000C81D00088800002054130020E7
:10040000A0000000008001005CCF00002B0700006E
:10041000666603000000000000000000000000000D
:1004200000000000000000000000000000000000CC
:1004300000000000000000000000000000000000BC
:1004400000000000000000000000000000000000AC
:10045000000000000000000000000000000000009C
:10080000C81D00080000002088000020C81D000846
:1008100000000000000000008800002054130020A9
:080820000000000000000000D0
:100828003C4B10B419683C4A41F0010119605C68FE
:1008380083B022405A601A68002122F0847222F4A0
:1008480080321A601A684FF41F0022F480221A605E
:100858005A6822F4FE025A609860009101911A6861
:1008680042F480321A6003E0009BB3F5A06F0AD00F
:10087800284B1B6803F400330193009B013300935A
:10088800019B002BF0D0234B1B6813F4003318BFD7
:1008980001230193019B012B06D0204B4FF00062EE
:1008A8009A6003B010BC70471D4A1A4B116841F09A
:1008B80010011160116821F003011160116841F005
:1008C800020111605A685A605A685A605A6842F4BC
:1008D80080625A605A6822F47C125A605A6842F45C
:1008E800E8125A601A6842F080721A60094B1A6856
:1008F8009201FBD55A6822F003025A605A6842F006
:1009080002025A60034B5B6803F00C03082BF9D111
:10091800C3E700BF001002400000FFF800ED00E050
:1009280000200240114A536803F00C03082B0ED133
:1009380053685168C3F38343C90303F1020311D514
:10094800526892030ED40A4A02FB03F300E0084BF4
:10095800064A084852680849C2F30312825CD34029
:100968000B607047054A02FB03F3F1E700100240F1
:1009780000127A00000000201000002000093D004D
:1009880008B500F00FF800BF08B5FFF749FF024AA5
:10099800024B9A6008BD00BF0000000800ED00E0AF
:1009A800FFF7C0BFBFF34F8F0449054BCA6802F475
:1009B800E0621343CB60BFF34F8FFEE700ED00E02A
:1009C8000400FA050C4A08B50346106878B10333E9
:1009D80023F00303094903448B4201D8136008BD7F
:1009E80000F058FC0C2303604FF0FF3008BD0449A9
:1009F80008461160EBE700BF88000020004C00208B
:100A080054130020024B012202600B60704700BFA4
:100A18001400002008B51B4B5A6911041BD4194B4C
:100A28005A69920400D408BD5A69174942F4005221
:100A38005A61CB68154A03F48053002B136814BF1E
:100A48004FF0FF3101210B44194613601048BDE8EF
:100A5800084000F05BBB5A690B4942F400425A61F6
:100A6800CB680C4A03F48043002B136814BF4FF083
:100A7800FF3101210B4408481946136000F046FB7A
:100A8800CDE700BF00040140000C0140E410002045
:100A9800E80000204001002090000020134910B514
:100AA8000B881AB2B2F57A7F07DA114C114824681C
:100AB800013324680B8040F822400F4C0F482378FC
:100AC800013303F00303A3F10301B1FA81F14909EA
:100AD800237000F035FB21780948A1F10301B1FA30
:100AE80081F1BDE81040490900F02ABB1C00002034
:100AF8002C11002044010020E81000209000002064
:100B0800E800002030B583B000F078F908B903B0E8
:100B180030BD00F05BF90D280CD00A280AD05E49D8
:100B28005E4C0B785A1C02F03F025BB20A70E0542C
:100B380003B030BD584C594D94F900300022EA54A6
:100B480095F90030433B102B15D8DFE803F06D14FE
:100B580014622E141423148878141492141809009B
:100B680095F901304E48732B00F08F8000F086FB1A
:100B7800C0B200F09FF90023237003B030BD72B6F5
:100B88004849494A002349480B60136000F0A4FA19
:100B980062B6F0E7464B002246481A8000F06EFB2A
:100BA8000146424800F0B2FAE5E70023ADF8043008
:100BB800BDF804301BB2B3F57A7FDCDA3E4DBDF8E0
:100BC80004303E491BB255F82320344800F0A6FBF8
:100BD800324800F01FF941F28732002305E041F264
:100BE8008732BDF8063001339BB2ADF80630BDF848
:100BF80006301BB29342F2DDBDF8043001339BB2DC
:100C0800ADF80430BDF804301BB2B3F57A7FD6DBFB
:100C1800B1E7274B2A49B3F90020204800F07EFBB2
:100C28001E4800F0F7F8A6E7224800F027FB014627
:100C38001E4800F083FA1E4B00221A809BE71D48CD
:100C480000F01CFB1F4AC1B2131D002908BF134640
:100C58001D4DA2F12C002B6000F06EFA8BE7134BB0
:100C68001649DA6A0D4800F059FB0C4800F0D2F832
:100C780081E70B4800F002FB6B780146A3F13002D4
:100C8800D2B20A4800F044FA75E700F0F7FA0749CB
:100C9800C0B200F02FF96EE78D000020EC100020A4
:100CA800EE10002040010020E410002090000020F9
:100CB8001C000020ED10002044010020641C0008E6
:100CC8006C1C0008BC0000202C11002000B5154B3E
:100CD8001549164A83B059605A6000F069F900F066
:100CE800BFF8134A134B0092FF2102F6180212486C
:100CF80000F0B2FA114A124B0092FF2102F582620B
:100D0800104800F0A9FA20220F490B4800F0C8FA51
:100D180020220E490B4800F0C3FA62B6FFF7F2FE34
:100D2800FCE700BF0020024023016745AB89EFCDF7
:100D380024000040400800409000002024040040A7
:100D480038080040E80000200004000820040008DB
:100D5800174A10B41388590611D51388154823F07B
:100D680040031B0414491B0C13800968036899424B
:100D78001AD0124C591CE45CCBB2948003600C4A24
:100D880013889B060ED513880D4923F020031B04F6
:100D98001B0C1380086894880B680A4A0133DBB27D
:100DA80014540B6010BC7047074B01221A60E6E729
:100DB800004400403C120020301100203C1100206B
:100DC80038110020441200204012002010B40848B6
:100DD800084C2268036807499A42FAD00A6806480C
:100DE8000B68805C0133DBB240B20B6010BC70470B
:100DF800381100203411002044120020034A044B0B
:100E080010681B68C01A18BF0120704734110020F1
:100E180038110020F0B5DFF844E00138DEF8006052
:100E2800002710F8013F0A4A0A4D002453B11168FF
:100E380011B11460AB80F4E70749721C8B55012788
:100E4800D6B2EEE707B9F0BDCEF80060FBE700BF09
:100E580040120020004400403C11002030110020C6
:100E6800F0B442F26C050F4A0F4B91690F4841F0FC
:100E780005019161D1690E4C41F40031D1611A68C4
:100E8800122722F47F421A601A684FF49C7642F4C3
:100E98000A4240211A601F61068185816160F0BCA9
:100EA800704700BF001002400008014000440040A5
:100EB80000E100E030B50D4B40011A1891681B584D
:100EC80002F10C005268C7B031C80191029000923B
:100ED8004FF48071064A0495039406A800F0ECF9D3
:100EE80006A8FFF797FF47B030BD00BF0004000811
:100EF800701C000870B505460E462B4CC8B021463C
:100F08004FF48072684600F0CBF931460DEB45107E
:100F1800202200F0C5F9254BDA68D607FBD4DA6839
:100F2800950644BF2022DA60204B1A6942F002027B
:100F38001A615C611A6942F040021A611B4BDA6857
:100F48009406FBD52022DA601A6922F002021A619F
:100F5800164BDA68D007FBD4DA681348910644BF09
:100F68002022DA60114A0DF1010113690DF22114F2
:100F780043F0010313610A7811F8013C03EB0223E3
:100F88009BB20380094BDA689206FBD50231202216
:100F98008C4200F10200DA60EDD11A6922F00102F8
:100FA8001A6148B070BD00BF00040008002002406C
:100FB800F0B540F201164FF6FF773A4A3A4893697E
:100FC8003A4D43F00D039361D169394B41F0070164
:100FD800D161384C384AC321056001611C604FF06B
:100FE80080415A600A8941F2100492B242F0030229
:100FF8000A81088B314A80B2304308838F850D8877
:1010080046F66800ADB245F001050D8011892C4DFA
:1010180089B241F003011181118B4FF4807E89B2AE
:101028000E43168397851188264E89B241F0010137
:1010380011805A68244F92B25A605A684FF420417E
:1010480042F0084242F408025A60DA6822F4704218
:10105800DA60A3F582336C613160B160C7F804E0EF
:101068001A8B0E2492B202431A839A8BFF2192B2F2
:10107800104398831C8599851A8C144992B242F4BE
:101088008852134E134C42F011028127F0251A841E
:1010980000201F8007224E6084F8235088600A6071
:1010A800F0BD00BF00100240000801408844448899
:1010B800000C0140444444AAAA44444400040040AB
:1010C800000001400004014000E100E010E000E001
:1010D8003F19010000ED00E0F0B4C66C0023076D75
:1010E800426D09493360002400254FF4FA663B60DD
:1010F8000E60C0E90E45F0BC03648362C3621360EE
:1011080003634364704700BF441300208162704743
:10111800052A05D8DFE802F00507090B0D03416130
:101128007047016070474160704781607047C160D7
:1011380070470161704700BF4162704701627047A4
:10114800434A2DE9F04F1368002B07DD446D002159
:10115800013B216013608162BDE8F08F026A72B6BC
:10116800446DC66AB4F9003000253344C362256073
:1011780062B621B1C36A416C43645B1A0363436A74
:10118800032B17D8DFE803F01D270209D0F830C079
:10119800436903FB0CF302EB2342836C9A420BDD99
:1011A800C16C026D002B23EAE374B4BF5B420023D9
:1011B8000C601360BDE8F08F5B429342B8BF1346E2
:1011C800EEE7836AC16A02685B1A934203DC524203
:1011D8009A42B8BF1A46D0E90E45D0F830C04368E5
:1011E800C16803FB0CF301FB05F8A2EB234E14EBDB
:1011F8000E064FEAE17945EBEE7704FB0988A1FB7F
:10120800044581684544C1FB0E45016CC0F840E0C7
:10121800C1EB0E0E01694FF4FA7AC1FB0E45220CA0
:1012280042EA05424FF0000B2B1492457BEB030179
:10123800C0E90E6708DB074C4FF0FF35A24273EB9D
:101248000501A5DA2246A3E74FF4FA72A0E700BF2A
:10125800441300200CFEFFFFF8B50D4604461F4658
:101268001646582100F00EF8069B0021053DE6645D
:10127800A5642765636521626162F8BD0A220021C1
:1012880000F0F6B801440023884202D000F8013B80
:10129800FAE77047014B1868704700BF80000020CC
:1012A80010B5431E0A44914204D011F8014B03F8CB
:1012B800014FF8E710BD00000CB430B5164B0C1EFA
:1012C8009DB01D6804DA8B232B604FF0FF301EE0C1
:1012D8004FF40273ADF814300CBF234604F1FF330A
:1012E800049307934FF6FF7302900690ADF81630FB
:1012F800209A21AB02A92846019300F01DF9431C4E
:10130800BCBF8B232B6014B1029B00221A701DB046
:10131800BDE8304002B07047800000200EB400B530
:101328004FF402719CB0ADF814106FF000410491B5
:1013380007914FF6FF711DAB02900690084853F8CD
:10134800042BADF81610006802A9019300F0F4F818
:10135800029B00221A701CB05DF804EB03B07047C2
:10136800800000202DE9F0470F4680463F48D0F81E
:1013780000903D4615F8014B09EB0400407800F059
:10138800080000F0FF0608B12F46F2E72D2C03D124
:10139800BD1C7C78012603E02B2C04BF7C78BD1C87
:1013A80013B1102B0AD15BE0302C57D1287800F00C
:1013B800DF0058284DD16C7810230235002E14BF59
:1013C8004FF0004C6FF0004CBCFBF3FA0027384696
:1013D80003FB1ACC09EB040E9EF801E01EF0040F83
:1013E80001D0303C0BE01EF0030E1BD0BEF1010F04
:1013F8000CBF4FF0370E4FF0570ECEEB0404A3424C
:1014080010DDB7F1FF3F0AD0504506D801D1644539
:1014180003DC03FB0040012701E04FF0FF3715F81C
:10142800014BD7E77B1C0CD1002E4FF0220314BFD1
:101438004FF000406FF00040C8F800302AB9BDE80E
:10144800F08706B1404272B107B1691E1160BDE86C
:10145800F0873024002BB1D10823AFE70A23ADE78A
:10146800302CA3D0AAE7BDE8F08700BF8400002095
:1014780013460A46014602480068FFF773BF00BFDB
:10148800800000202DE9F0478E6882469E420C4677
:10149800914698463ED88A8912F4906F3AD02568CA
:1014A800096902236F1A656905EB450595FBF3F594
:1014B8007B1C43449D4238BF1D4653050FD5294622
:1014C80000F038FB064698B13A462169FFF7E8FE76
:1014D800A38923F4906343F08003A38113E02A4691
:1014E80000F07CFB064670B92169504600F0DEFA30
:1014F8000C23CAF80030A3894FF0FF3043F04003B3
:10150800A381BDE8F08726613E44266046466561B2
:10151800ED1BA560464528BF464649463246206829
:1015280000F0A8FAA36800209B1BA36023681E4450
:101538002660BDE8F08700002DE9F04F9DB00393C9
:101548008B8980461C060D4616460DD50B695BB97E
:10155800402100F0EFFA2860286118B90C23C8F878
:101568000030CDE040236B610023099320238DF8E0
:101578002930DFF89CB130238DF82A3037463C46B5
:1015880014F8013B1BB9B7EB060910D003E0252B73
:10159800F9D02746F3E74B46324629464046FFF73F
:1015A80071FF013000F0A780099B4B4409933B78F9
:1015B800002B00F0A08000234FF0FF320493079324
:1015C800059206938DF853301A9301260522217847
:1015D8004E4800F041FA671C049B38B14B4A3C4620
:1015E800801A06FA00F018430490EFE7D90644BFC2
:1015F80020228DF853201A0744BF2B228DF8532040
:1016080022782A2A03D0079A00210A200BE0039A9D
:10161800111D12680391002A10DA524243F00200A9
:10162800079204900BE027463B780134303B092BA6
:1016380003D800FB02320121F5E701B107923B789C
:101648002E2B1ED17B782A2B0AD1039B02371A1D19
:101658001B680392002BB8BF4FF0FF33059310E0CF
:10166800002319460593781C0A2407463A78013066
:10167800303A092A03D804FB01210123F5E703B115
:10168800059103223978224800F0E6F940B1402359
:10169800CBEB000003FA00F0049B013718430490D9
:1016A800397806221B487E1C8DF8281000F0D4F9E2
:1016B80088B1194B33B9039B073323F00703083369
:1016C800039314E003AB00932A46144B04A9404645
:1016D800AFF3008007E003AB00932A460F4B04A941
:1016E800404600F093F8B0F1FF3F824603D0099BD3
:1016F8005344099342E7AB895B0601D4099801E09A
:101708004FF0FF301DB0BDE8F08F00BF931D0008FB
:10171800991D00089D1D0008000000008D14000898
:101728002DE9F04791461F460A698B6806469342A1
:10173800B8BF1346C9F8003091F843200C46DDF8CD
:10174800208012B10133C9F800302368990642BFDE
:10175800D9F800300233C9F80030256815F00605BD
:1017680010D104F1190A07E00123524639463046E0
:10177800C04701301AD00135E368D9F800209B1A18
:101788009D42F1DB94F843302268003318BF0123EF
:1017980092060FD5E118302081F843005A1C94F8BE
:1017A80045102244023382F8431003E04FF0FF3023
:1017B800BDE8F08704F1430239463046C04701309E
:1017C800F4D02268D9F80050E36802F00602042A2F
:1017D80008BF5D1B2269A3680CBF25EAE5750025D3
:1017E8009342C4BF9B1AED184FF000091A344D45B7
:1017F80009D00123224639463046C0470130D5D0AA
:1018080009F10109F3E70020BDE8F0872DE9F0436D
:1018180017460A7E85B06E2A984606460C460C9BEB
:1018280001F1430E00F0AE8011D8632A22D009D806
:10183800002A00F0BB80582A40F0CA8081F8452071
:10184800834955E0642A1ED0692A1CD0C0E0732A57
:1018580000F0B08009D86F2A2ED0702A40F0B880E6
:101868000A6842F020020A603EE0752A24D0782AED
:101878003AD0ADE01A6801F14205111D19601368EC
:1018880084F84230A8E021681A6811F0800F02D06D
:10189800111D196008E011F0400F02F104011960F0
:1018A80002D0B2F9003000E01368002B3CDA2D2298
:1018B8005B4284F8432037E021681A6811F0800FF2
:1018C80002D0111D196007E011F0400F02F1040168
:1018D800196001D0138800E01368227E5C496F2AE2
:1018E80014BF0A2208221BE078225A4984F84520AE
:1018F8002268186812F0800F00F104051D6003D1FA
:10190800550601D5038800E00368D00744BF42F0BC
:10191800200222601BB9226822F0200222601022D5
:10192800002084F8430001E049490A226568002D37
:10193800A56008DB206820F0040020602BB9002D8A
:101948007DD175460CE0002B79D07546B3FBF2F0DB
:1019580002FB1033CB5C05F8013D03460028F5D1A6
:10196800082A0BD12368DA0708D5236962689A42E6
:10197800DEBF302305F8013C05F1FF35C5EB0E034A
:1019880023612EE008681A6810F0800F496903D0B7
:10199800101D1860136808E010F0400F02F10400F1
:1019A8001860136801D0198000E0196000232361D2
:1019B800754616E01A68111D1960156800216268DD
:1019C800284600F049F808B1401B6060636804E0ED
:1019D80004F1420584F8422001232361002384F89E
:1019E8004330CDF800803B4603AA21463046FFF736
:1019F80097FE013002D14FF0FF3026E023692A46D6
:101A080039463046C0470130F5D023689B0710D5CA
:101A1800002504F1190907E001234A4639463046F2
:101A2800C0470130E7D00135E368039A9B1A9D420D
:101A3800F2DBE068039B9842B8BF184605E00B78D4
:101A480004F1420584F842308AE705B0BDE8F08326
:101A5800A41D0008B51D000810B5C9B20244904283
:101A6800034605D01C7801308C42F8D1184610BDC9
:101A7800002010BD884210B501EB020301D8421EB8
:101A88000BE09842FBD28118D21AD34204D013F843
:101A9800014D01F8014DF8E710BD994204D011F845
:101AA800014B02F8014FF8E710BD000030B50029DE
:101AB8003CD051F8042C0B1F1D49002AB8BF9B18B5
:101AC8000A680C4612B95A600B6030BD9A420DD9AB
:101AD80019685818824201BF1068526809181960BD
:101AE8005A60236030BD994203D80A4651680029DC
:101AF800F9D1146815199D420AD11B682344D018DE
:101B08008142136012D10868034413604B680CE0EB
:101B180002D90C23036030BD18681C18A14201BF0C
:101B28000C684968001918605960536030BD00BFDF
:101B38004C13002070B5CD1C25F0030508350C2D7D
:101B480038BF0C25002D064603DA0C23336000202D
:101B580070BDA942F9D81F4B1C681A462146A1B18D
:101B68000B685B1B0ED40B2B03D90B60CC18CD5024
:101B78001EE08C420BBF63684B681360636018BF3C
:101B88000C4615E00C464968E9E7134C23681BB975
:101B9800304600F049F820602946304600F044F805
:101BA800431CD2D0C41C24F00304A0420AD12560EF
:101BB80004F10B00231D20F00700C31A09D05A4274
:101BC800E25070BD211A304600F02EF80130EED1F7
:101BD800BBE770BD4C13002048130020F8B507463A
:101BE80015460E4621B91146BDE8F840FFF7A2BFD9
:101BF8001AB9FFF75BFF2846F8BD00F025F88542C3
:101C08000ED929463846FFF795FF044650B13146AC
:101C18002A46FFF745FB31463846FFF747FF01E004
:101C28003046F8BD2046F8BD38B5064C00230546B9
:101C380008462360FEF7C6FE431C02D1236803B1A1
:101C48002B6038BD5013002051F8040C0028BEBF8B
:101C5800091851F8043CC01804387047256C640A08
:101C68000000000025640A00256C642C20256C64A3
:101C78002C20256C642C20256C642C20256C642C6D
:101C880020256C640A00000043000020202020204A
:101C98002020202028282828282020202020202014
:101CA8002020202020202020202020881010101004
:101CB8001010101010101010101010040404040458
:101CC8000404040404101010101010104141414184
:101CD800414101010101010101010101010101016C
:101CE800010101010101101010101010424242427E
:101CF800424202020202020202020202020202023C
:101D0800020202020202101010102000000000005F
:101D180000000000000000000000000000000000BB
:101D280000000000000000000000000000000000AB
:101D3800000000000000000000000000000000009B
:101D4800000000000000000000000000000000008B
:101D5800000000000000000000000000000000007B
:101D6800000000000000000000000000000000006B
:101D7800000000000000000000000000000000005B
:101D88000000000000000000000000232D302B2080
:101D980000686C4C00656667454647003031323351
:101DA80034353637383941424344454600303132BC
:0E1DB80033343536373839616263646566004E
:101DC80000000000000000000102030406070809E3
:101DD80000A24A048C00002000000000E803FFFF76
:101DE80000000000000000000000000000000000EB
:101DF80000000000000000000000000000000000DB
:101E0800901C000800000000000000000000000016
:101E180000000000000000000000000000000000BA
:101E280000000000000000000000000000000000AA
:101E3800000000000000000000000000000000009A
:081E480020000020921C00089C
:040000050800018569
:00000001FF
